{
  "contractName": "CidStorage",
  "abi": [
    {
      "anonymous": false,
      "inputs": [
        {
          "indexed": false,
          "internalType": "string",
          "name": "newCid",
          "type": "string"
        },
        {
          "indexed": true,
          "internalType": "address",
          "name": "updatedBy",
          "type": "address"
        },
        {
          "indexed": false,
          "internalType": "uint256",
          "name": "newCount",
          "type": "uint256"
        }
      ],
      "name": "CidUpdated",
      "type": "event"
    },
    {
      "inputs": [],
      "name": "cid",
      "outputs": [
        {
          "internalType": "string",
          "name": "",
          "type": "string"
        }
      ],
      "stateMutability": "view",
      "type": "function",
      "constant": true
    },
    {
      "inputs": [],
      "name": "count",
      "outputs": [
        {
          "internalType": "uint256",
          "name": "",
          "type": "uint256"
        }
      ],
      "stateMutability": "view",
      "type": "function",
      "constant": true
    },
    {
      "inputs": [
        {
          "internalType": "string",
          "name": "_newCid",
          "type": "string"
        }
      ],
      "name": "setCid",
      "outputs": [],
      "stateMutability": "nonpayable",
      "type": "function"
    },
    {
      "inputs": [],
      "name": "getCid",
      "outputs": [
        {
          "internalType": "string",
          "name": "",
          "type": "string"
        }
      ],
      "stateMutability": "view",
      "type": "function",
      "constant": true
    },
    {
      "inputs": [],
      "name": "getCount",
      "outputs": [
        {
          "internalType": "uint256",
          "name": "",
          "type": "uint256"
        }
      ],
      "stateMutability": "view",
      "type": "function",
      "constant": true
    }
  ],
  "bytecode": "0x6080604052348015600f57600080fd5b506105358061001f6000396000f3fe608060405234801561001057600080fd5b50600436106100575760003560e01c806306661abd1461005c578063a87d942c14610078578063aa3ec0a914610080578063b7e03bec14610095578063ca00c702146100aa575b600080fd5b61006560015481565b6040519081526020015b60405180910390f35b600154610065565b6100886100b2565b60405161006f9190610274565b6100a86100a33660046102a4565b610140565b005b61008861019c565b600080546100bf9061035d565b80601f01602080910402602001604051908101604052809291908181526020018280546100eb9061035d565b80156101385780601f1061010d57610100808354040283529160200191610138565b820191906000526020600020905b81548152906001019060200180831161011b57829003601f168201915b505050505081565b600061014c82826103f3565b506001805461015a916104b6565b600181905560405133917fcc6856ea94cf669cc255443ce05920089289c3345ef2ae17933abc9d9a91a476916101919185916104dd565b60405180910390a250565b6060600080546101ab9061035d565b80601f01602080910402602001604051908101604052809291908181526020018280546101d79061035d565b80156102245780601f106101f957610100808354040283529160200191610224565b820191906000526020600020905b81548152906001019060200180831161020757829003601f168201915b5050505050905090565b6000815180845260005b8181101561025457602081850181015186830182015201610238565b506000602082860101526020601f19601f83011685010191505092915050565b602081526000610287602083018461022e565b9392505050565b634e487b7160e01b600052604160045260246000fd5b6000602082840312156102b657600080fd5b813567ffffffffffffffff8111156102cd57600080fd5b8201601f810184136102de57600080fd5b803567ffffffffffffffff8111156102f8576102f861028e565b604051601f8201601f19908116603f0116810167ffffffffffffffff811182821017156103275761032761028e565b60405281815282820160200186101561033f57600080fd5b81602084016020830137600091810160200191909152949350505050565b600181811c9082168061037157607f821691505b60208210810361039157634e487b7160e01b600052602260045260246000fd5b50919050565b601f8211156103ee57828211156103ee57806000526020600020601f840160051c60208510156103c5575060005b90810190601f840160051c0360005b818110156103ea576000838201556001016103d4565b5050505b505050565b815167ffffffffffffffff81111561040d5761040d61028e565b6104218161041b845461035d565b84610397565b6020601f821160018114610455576000831561043d5750848201515b600019600385901b1c1916600184901b1784556104af565b600084815260208120601f198516915b828110156104855787850151825560209485019460019092019101610465565b50848210156104a35786840151600019600387901b60f8161c191681555b505060018360011b0184555b5050505050565b808201808211156104d757634e487b7160e01b600052601160045260246000fd5b92915050565b6040815260006104f0604083018561022e565b9050826020830152939250505056fea2646970667358221220b07843ae807320ff19f67fa4e32f35013d3219a591c413bc651edcfc2b27d5e764736f6c63430008230033",
  "immutableReferences": {},
  "source": "// SPDX-License-Identifier: MIT\r\npragma solidity ^0.8.0;\r\n\r\ncontract CidStorage {\r\n    string public cid;\r\n    uint256 public count;\r\n\r\n    event CidUpdated(string newCid, address indexed updatedBy, uint256 newCount);\r\n\r\n    function setCid(string memory _newCid) public {\r\n        cid = _newCid;\r\n        count = count + 1;\r\n        emit CidUpdated(_newCid, msg.sender, count);\r\n    }\r\n\r\n    function getCid() public view returns (string memory) {\r\n        return cid;\r\n    }\r\n\r\n    function getCount() public view returns (uint256) {\r\n        return count;\r\n    }\r\n}",
  "sourcePath": "C:\\Users\\Admin\\Downloads\\Blockchain\\fraud-detect-dapp-mvp\\contracts\\CidStorage.sol",
  "compiler": {
    "name": "solc",
    "version": "0.8.35+commit.47b9dedd.Emscripten.clang"
  },
  "schemaVersion": "3.4.16",
  "updatedAt": "2026-06-07T16:40:50.638Z",
  "networkType": "ethereum",
  "devdoc": {
    "kind": "dev",
    "methods": {},
    "version": 1
  },
  "userdoc": {
    "kind": "user",
    "methods": {},
    "version": 1
  }
}