{
  "contractName": "CidStorage",
  "abi": [
    {
      "inputs": [
        {
          "internalType": "uint256",
          "name": "_maxRecords",
          "type": "uint256"
        }
      ],
      "stateMutability": "nonpayable",
      "type": "constructor"
    },
    {
      "anonymous": false,
      "inputs": [
        {
          "indexed": true,
          "internalType": "address",
          "name": "account",
          "type": "address"
        },
        {
          "indexed": false,
          "internalType": "bool",
          "name": "isAuthorized",
          "type": "bool"
        }
      ],
      "name": "AuthorizationChanged",
      "type": "event"
    },
    {
      "anonymous": false,
      "inputs": [
        {
          "indexed": false,
          "internalType": "string",
          "name": "newCid",
          "type": "string"
        },
        {
          "indexed": true,
          "internalType": "address",
          "name": "updatedBy",
          "type": "address"
        },
        {
          "indexed": false,
          "internalType": "uint256",
          "name": "newCount",
          "type": "uint256"
        },
        {
          "indexed": false,
          "internalType": "string",
          "name": "reason",
          "type": "string"
        }
      ],
      "name": "CidUpdated",
      "type": "event"
    },
    {
      "anonymous": false,
      "inputs": [
        {
          "indexed": false,
          "internalType": "bool",
          "name": "locked",
          "type": "bool"
        }
      ],
      "name": "ContractLocked",
      "type": "event"
    },
    {
      "anonymous": false,
      "inputs": [
        {
          "indexed": true,
          "internalType": "uint256",
          "name": "index",
          "type": "uint256"
        },
        {
          "indexed": false,
          "internalType": "string",
          "name": "cid",
          "type": "string"
        },
        {
          "indexed": false,
          "internalType": "address",
          "name": "by",
          "type": "address"
        },
        {
          "indexed": false,
          "internalType": "string",
          "name": "reason",
          "type": "string"
        }
      ],
      "name": "HistoryItemAdded",
      "type": "event"
    },
    {
      "anonymous": false,
      "inputs": [
        {
          "indexed": false,
          "internalType": "uint256",
          "name": "newMax",
          "type": "uint256"
        }
      ],
      "name": "MaxRecordsChanged",
      "type": "event"
    },
    {
      "inputs": [
        {
          "internalType": "address",
          "name": "",
          "type": "address"
        }
      ],
      "name": "authorized",
      "outputs": [
        {
          "internalType": "bool",
          "name": "",
          "type": "bool"
        }
      ],
      "stateMutability": "view",
      "type": "function",
      "constant": true
    },
    {
      "inputs": [],
      "name": "cid",
      "outputs": [
        {
          "internalType": "string",
          "name": "",
          "type": "string"
        }
      ],
      "stateMutability": "view",
      "type": "function",
      "constant": true
    },
    {
      "inputs": [],
      "name": "count",
      "outputs": [
        {
          "internalType": "uint256",
          "name": "",
          "type": "uint256"
        }
      ],
      "stateMutability": "view",
      "type": "function",
      "constant": true
    },
    {
      "inputs": [
        {
          "internalType": "uint256",
          "name": "",
          "type": "uint256"
        }
      ],
      "name": "history",
      "outputs": [
        {
          "internalType": "string",
          "name": "cid",
          "type": "string"
        },
        {
          "internalType": "uint256",
          "name": "timestamp",
          "type": "uint256"
        },
        {
          "internalType": "address",
          "name": "modifiedBy",
          "type": "address"
        },
        {
          "internalType": "string",
          "name": "reason",
          "type": "string"
        }
      ],
      "stateMutability": "view",
      "type": "function",
      "constant": true
    },
    {
      "inputs": [],
      "name": "locked",
      "outputs": [
        {
          "internalType": "bool",
          "name": "",
          "type": "bool"
        }
      ],
      "stateMutability": "view",
      "type": "function",
      "constant": true
    },
    {
      "inputs": [],
      "name": "maxRecords",
      "outputs": [
        {
          "internalType": "uint256",
          "name": "",
          "type": "uint256"
        }
      ],
      "stateMutability": "view",
      "type": "function",
      "constant": true
    },
    {
      "inputs": [],
      "name": "owner",
      "outputs": [
        {
          "internalType": "address",
          "name": "",
          "type": "address"
        }
      ],
      "stateMutability": "view",
      "type": "function",
      "constant": true
    },
    {
      "inputs": [
        {
          "internalType": "address",
          "name": "_account",
          "type": "address"
        }
      ],
      "name": "addAuthorized",
      "outputs": [],
      "stateMutability": "nonpayable",
      "type": "function"
    },
    {
      "inputs": [
        {
          "internalType": "address",
          "name": "_account",
          "type": "address"
        }
      ],
      "name": "removeAuthorized",
      "outputs": [],
      "stateMutability": "nonpayable",
      "type": "function"
    },
    {
      "inputs": [
        {
          "internalType": "uint256",
          "name": "_newMax",
          "type": "uint256"
        }
      ],
      "name": "setMaxRecords",
      "outputs": [],
      "stateMutability": "nonpayable",
      "type": "function"
    },
    {
      "inputs": [],
      "name": "lock",
      "outputs": [],
      "stateMutability": "nonpayable",
      "type": "function"
    },
    {
      "inputs": [],
      "name": "unlock",
      "outputs": [],
      "stateMutability": "nonpayable",
      "type": "function"
    },
    {
      "inputs": [
        {
          "internalType": "string",
          "name": "_newCid",
          "type": "string"
        },
        {
          "internalType": "string",
          "name": "_reason",
          "type": "string"
        }
      ],
      "name": "setCid",
      "outputs": [],
      "stateMutability": "nonpayable",
      "type": "function"
    },
    {
      "inputs": [],
      "name": "getCid",
      "outputs": [
        {
          "internalType": "string",
          "name": "",
          "type": "string"
        }
      ],
      "stateMutability": "view",
      "type": "function",
      "constant": true
    },
    {
      "inputs": [],
      "name": "getCount",
      "outputs": [
        {
          "internalType": "uint256",
          "name": "",
          "type": "uint256"
        }
      ],
      "stateMutability": "view",
      "type": "function",
      "constant": true
    },
    {
      "inputs": [],
      "name": "getHistoryCount",
      "outputs": [
        {
          "internalType": "uint256",
          "name": "",
          "type": "uint256"
        }
      ],
      "stateMutability": "view",
      "type": "function",
      "constant": true
    },
    {
      "inputs": [
        {
          "internalType": "uint256",
          "name": "index",
          "type": "uint256"
        }
      ],
      "name": "getHistoryItem",
      "outputs": [
        {
          "internalType": "string",
          "name": "cid",
          "type": "string"
        },
        {
          "internalType": "uint256",
          "name": "timestamp",
          "type": "uint256"
        },
        {
          "internalType": "address",
          "name": "modifiedBy",
          "type": "address"
        },
        {
          "internalType": "string",
          "name": "reason",
          "type": "string"
        }
      ],
      "stateMutability": "view",
      "type": "function",
      "constant": true
    },
    {
      "inputs": [],
      "name": "getAllHistory",
      "outputs": [
        {
          "components": [
            {
              "internalType": "string",
              "name": "cid",
              "type": "string"
            },
            {
              "internalType": "uint256",
              "name": "timestamp",
              "type": "uint256"
            },
            {
              "internalType": "address",
              "name": "modifiedBy",
              "type": "address"
            },
            {
              "internalType": "string",
              "name": "reason",
              "type": "string"
            }
          ],
          "internalType": "struct CidStorage.HistoryItem[]",
          "name": "",
          "type": "tuple[]"
        }
      ],
      "stateMutability": "view",
      "type": "function",
      "constant": true
    }
  ],
  "bytecode": "0x6080604052348015600f57600080fd5b50604051611325380380611325833981016040819052602c91606e565b600080546001600160a01b0319163390811782558152600160208190526040909120805460ff1990811690921790556005919091556006805490911690556086565b600060208284031215607f57600080fd5b5051919050565b611290806100956000396000f3fe608060405234801561001057600080fd5b50600436106101165760003560e01c8063a69df4b5116100a2578063b918161111610071578063b91816111461021e578063ca00c70214610251578063cf1c316a14610259578063cf3090121461026c578063f83d08ba1461027957600080fd5b8063a69df4b5146101e6578063a7a38f0b146101ee578063a87d942c14610201578063aa3ec0a91461020957600080fd5b80638556b674116100e95780638556b6741461016a5780638da5cb5b1461017d578063907dd36d146101a8578063a18861a3146101cb578063a32ff734146101d357600080fd5b806306661abd1461011b57806339c5891a14610137578063485d7d941461014c5780637b0a3a8d14610161575b600080fd5b61012460035481565b6040519081526020015b60405180910390f35b61013f610281565b60405161012e9190610dbf565b61015f61015a366004610e67565b610425565b005b61012460055481565b61015f610178366004610f3c565b6104ae565b600054610190906001600160a01b031681565b6040516001600160a01b03909116815260200161012e565b6101bb6101b6366004610fa5565b61075c565b60405161012e9493929190610fbe565b600454610124565b61015f6101e1366004610fa5565b610944565b61015f6109a9565b6101bb6101fc366004610fa5565b610a14565b600354610124565b610211610b72565b60405161012e9190611004565b61024161022c366004610e67565b60016020526000908152604090205460ff1681565b604051901515815260200161012e565b610211610c00565b61015f610267366004610e67565b610c92565b6006546102419060ff1681565b61015f610d0f565b60606004805480602002602001604051908101604052809291908181526020016000905b8282101561041c57838290600052602060002090600402016040518060800160405290816000820180546102d890611017565b80601f016020809104026020016040519081016040528092919081815260200182805461030490611017565b80156103515780601f1061032657610100808354040283529160200191610351565b820191906000526020600020905b81548152906001019060200180831161033457829003601f168201915b50505091835250506001820154602082015260028201546001600160a01b0316604082015260038201805460609092019161038b90611017565b80601f01602080910402602001604051908101604052809291908181526020018280546103b790611017565b80156104045780601f106103d957610100808354040283529160200191610404565b820191906000526020600020905b8154815290600101906020018083116103e757829003601f168201915b505050505081525050815260200190600101906102a5565b50505050905090565b6000546001600160a01b031633146104585760405162461bcd60e51b815260040161044f90611051565b60405180910390fd5b6001600160a01b0381166000818152600160209081526040808320805460ff19169055519182527f5fe3a0cb9aeae856eac34445ace9544f3e15c21fa6f9bffeca60d662a690ca1b91015b60405180910390a250565b6000546001600160a01b03163314806104d657503360009081526001602052604090205460ff165b6105135760405162461bcd60e51b815260206004820152600e60248201526d139bdd08185d5d1a1bdc9a5e995960921b604482015260640161044f565b60065460ff161561055b5760405162461bcd60e51b815260206004820152601260248201527110dbdb9d1c9858dd081a5cc81b1bd8dad95960721b604482015260640161044f565b600554600454106105b85760405162461bcd60e51b815260206004820152602160248201527f4d6178696d756d206e756d626572206f66207265636f726473207265616368656044820152601960fa1b606482015260840161044f565b60008251116105ff5760405162461bcd60e51b81526020600482015260136024820152724349442063616e6e6f7420626520656d70747960681b604482015260640161044f565b60408051608081018252838152426020820152339181019190915260608101829052600480546001810182556000829052825191027f8a35acfbc15ff81a39ae7d344fd709f28e8600b4aa8c65c6b64bfe7fe36bd19b0190819061066390826110d0565b506020820151600182015560408201516002820180546001600160a01b0319166001600160a01b03909216919091179055606082015160038201906106a890826110d0565b50600291506106b9905083826110d0565b50600380549060006106ca836111a9565b909155505060035460405133917f2ac77bfd505435c458b0489b6ca6c06d5d8ec3ae15bc884e1a820f87f47a31dd9161070691869186906111c2565b60405180910390a260045461071d906001906111f7565b7f1368436fbfebea8aa2879a5147f29c5324cdf2e277ec73baf163b64a644d4e9e83338460405161075093929190611210565b60405180910390a25050565b6060600080606060048054905085106107ad5760405162461bcd60e51b8152602060048201526013602482015272496e646578206f7574206f6620626f756e647360681b604482015260640161044f565b6000600486815481106107c2576107c2611244565b90600052602060002090600402016040518060800160405290816000820180546107eb90611017565b80601f016020809104026020016040519081016040528092919081815260200182805461081790611017565b80156108645780601f1061083957610100808354040283529160200191610864565b820191906000526020600020905b81548152906001019060200180831161084757829003601f168201915b50505091835250506001820154602082015260028201546001600160a01b0316604082015260038201805460609092019161089e90611017565b80601f01602080910402602001604051908101604052809291908181526020018280546108ca90611017565b80156109175780601f106108ec57610100808354040283529160200191610917565b820191906000526020600020905b8154815290600101906020018083116108fa57829003601f168201915b505050919092525050815160208301516040840151606090940151919a9099509297509550909350505050565b6000546001600160a01b0316331461096e5760405162461bcd60e51b815260040161044f90611051565b60058190556040518181527f345b08d3961434c8ff55d86b09e19c27dbd0141a3ac483a2651268a89945c81d9060200160405180910390a150565b6000546001600160a01b031633146109d35760405162461bcd60e51b815260040161044f90611051565b6006805460ff19169055604051600081527fb08f70f6219c5c2ed5e08e7cf45080e4840fde880b27a0841faf45475cd02d2e906020015b60405180910390a1565b60048181548110610a2457600080fd5b9060005260206000209060040201600091509050806000018054610a4790611017565b80601f0160208091040260200160405190810160405280929190818152602001828054610a7390611017565b8015610ac05780601f10610a9557610100808354040283529160200191610ac0565b820191906000526020600020905b815481529060010190602001808311610aa357829003601f168201915b5050505060018301546002840154600385018054949592946001600160a01b03909216935090610aef90611017565b80601f0160208091040260200160405190810160405280929190818152602001828054610b1b90611017565b8015610b685780601f10610b3d57610100808354040283529160200191610b68565b820191906000526020600020905b815481529060010190602001808311610b4b57829003601f168201915b5050505050905084565b60028054610b7f90611017565b80601f0160208091040260200160405190810160405280929190818152602001828054610bab90611017565b8015610bf85780601f10610bcd57610100808354040283529160200191610bf8565b820191906000526020600020905b815481529060010190602001808311610bdb57829003601f168201915b505050505081565b606060028054610c0f90611017565b80601f0160208091040260200160405190810160405280929190818152602001828054610c3b90611017565b8015610c885780601f10610c5d57610100808354040283529160200191610c88565b820191906000526020600020905b815481529060010190602001808311610c6b57829003601f168201915b5050505050905090565b6000546001600160a01b03163314610cbc5760405162461bcd60e51b815260040161044f90611051565b6001600160a01b038116600081815260016020818152604092839020805460ff19168317905591519081527f5fe3a0cb9aeae856eac34445ace9544f3e15c21fa6f9bffeca60d662a690ca1b91016104a3565b6000546001600160a01b03163314610d395760405162461bcd60e51b815260040161044f90611051565b6006805460ff191660019081179091556040519081527fb08f70f6219c5c2ed5e08e7cf45080e4840fde880b27a0841faf45475cd02d2e90602001610a0a565b6000815180845260005b81811015610d9f57602081850181015186830182015201610d83565b506000602082860101526020601f19601f83011685010191505092915050565b6000602082016020835280845180835260408501915060408160051b86010192506020860160005b82811015610e5b57603f198786030184528151805160808752610e0d6080880182610d79565b90506020820151602088015260018060a01b036040830151166040880152606082015191508681036060880152610e448183610d79565b965050506020938401939190910190600101610de7565b50929695505050505050565b600060208284031215610e7957600080fd5b81356001600160a01b0381168114610e9057600080fd5b9392505050565b634e487b7160e01b600052604160045260246000fd5b600082601f830112610ebe57600080fd5b813567ffffffffffffffff811115610ed857610ed8610e97565b604051601f8201601f19908116603f0116810167ffffffffffffffff81118282101715610f0757610f07610e97565b604052818152838201602001851015610f1f57600080fd5b816020850160208301376000918101602001919091529392505050565b60008060408385031215610f4f57600080fd5b823567ffffffffffffffff811115610f6657600080fd5b610f7285828601610ead565b925050602083013567ffffffffffffffff811115610f8f57600080fd5b610f9b85828601610ead565b9150509250929050565b600060208284031215610fb757600080fd5b5035919050565b608081526000610fd16080830187610d79565b602083018690526001600160a01b03851660408401528281036060840152610ff98185610d79565b979650505050505050565b602081526000610e906020830184610d79565b600181811c9082168061102b57607f821691505b60208210810361104b57634e487b7160e01b600052602260045260246000fd5b50919050565b6020808252600990820152682737ba1037bbb732b960b91b604082015260600190565b601f8211156110cb57828211156110cb57806000526020600020601f840160051c60208510156110a2575060005b90810190601f840160051c0360005b818110156110c7576000838201556001016110b1565b5050505b505050565b815167ffffffffffffffff8111156110ea576110ea610e97565b6110fe816110f88454611017565b84611074565b6020601f821160018114611132576000831561111a5750848201515b600019600385901b1c1916600184901b17845561118c565b600084815260208120601f198516915b828110156111625787850151825560209485019460019092019101611142565b50848210156111805786840151600019600387901b60f8161c191681555b505060018360011b0184555b5050505050565b634e487b7160e01b600052601160045260246000fd5b6000600182016111bb576111bb611193565b5060010190565b6060815260006111d56060830186610d79565b84602084015282810360408401526111ed8185610d79565b9695505050505050565b8181038181111561120a5761120a611193565b92915050565b6060815260006112236060830186610d79565b6001600160a01b038516602084015282810360408401526111ed8185610d79565b634e487b7160e01b600052603260045260246000fdfea2646970667358221220df167eb2ab1950bffda91cee3a8d529bf9bee4cc30b95c4ef04ddaa495d0895664736f6c63430008230033",
  "immutableReferences": {},
  "source": "// SPDX-License-Identifier: MIT\r\npragma solidity ^0.8.0;\r\n\r\ncontract CidStorage {\r\n    // ============ Quyền truy cập ============\r\n    address public owner;\r\n    mapping(address => bool) public authorized;\r\n\r\n    // ============ Dữ liệu chính ============\r\n    string public cid;              // CID hiện tại (mới nhất)\r\n    uint256 public count;           // tổng số lần ghi\r\n\r\n    // ============ Lịch sử ============\r\n    struct HistoryItem {\r\n        string cid;\r\n        uint256 timestamp;\r\n        address modifiedBy;\r\n        string reason;\r\n    }\r\n    HistoryItem[] public history;\r\n\r\n    // ============ Giới hạn & Khóa ============\r\n    uint256 public maxRecords;      // số lượng ghi tối đa (không tính lịch sử?)\r\n    bool public locked;             // true: không ai ghi được\r\n\r\n    // ============ Events ============\r\n    event CidUpdated(string newCid, address indexed updatedBy, uint256 newCount, string reason);\r\n    event AuthorizationChanged(address indexed account, bool isAuthorized);\r\n    event MaxRecordsChanged(uint256 newMax);\r\n    event ContractLocked(bool locked);\r\n    event HistoryItemAdded(uint256 indexed index, string cid, address by, string reason);\r\n\r\n    // ============ Modifiers ============\r\n    modifier onlyOwner() {\r\n        require(msg.sender == owner, \"Not owner\");\r\n        _;\r\n    }\r\n\r\n    modifier onlyAuthorized() {\r\n        require(msg.sender == owner || authorized[msg.sender], \"Not authorized\");\r\n        _;\r\n    }\r\n\r\n    modifier notLocked() {\r\n        require(!locked, \"Contract is locked\");\r\n        _;\r\n    }\r\n\r\n    // ============ Constructor ============\r\n    constructor(uint256 _maxRecords) {\r\n        owner = msg.sender;\r\n        authorized[owner] = true;\r\n        maxRecords = _maxRecords;\r\n        locked = false;\r\n    }\r\n\r\n    // ============ Quản lý quyền ============\r\n    function addAuthorized(address _account) external onlyOwner {\r\n        authorized[_account] = true;\r\n        emit AuthorizationChanged(_account, true);\r\n    }\r\n\r\n    function removeAuthorized(address _account) external onlyOwner {\r\n        authorized[_account] = false;\r\n        emit AuthorizationChanged(_account, false);\r\n    }\r\n\r\n    // ============ Quản lý giới hạn & khóa ============\r\n    function setMaxRecords(uint256 _newMax) external onlyOwner {\r\n        maxRecords = _newMax;\r\n        emit MaxRecordsChanged(_newMax);\r\n    }\r\n\r\n    function lock() external onlyOwner {\r\n        locked = true;\r\n        emit ContractLocked(true);\r\n    }\r\n\r\n    function unlock() external onlyOwner {\r\n        locked = false;\r\n        emit ContractLocked(false);\r\n    }\r\n\r\n    // ============ Ghi CID (có lý do) ============\r\n    function setCid(string memory _newCid, string memory _reason) \r\n        public \r\n        onlyAuthorized \r\n        notLocked \r\n    {\r\n        require(history.length < maxRecords, \"Maximum number of records reached\");\r\n        require(bytes(_newCid).length > 0, \"CID cannot be empty\");\r\n\r\n        // Lưu vào lịch sử\r\n        history.push(HistoryItem({\r\n            cid: _newCid,\r\n            timestamp: block.timestamp,\r\n            modifiedBy: msg.sender,\r\n            reason: _reason\r\n        }));\r\n\r\n        // Cập nhật biến hiện tại\r\n        cid = _newCid;\r\n        count++;\r\n\r\n        emit CidUpdated(_newCid, msg.sender, count, _reason);\r\n        emit HistoryItemAdded(history.length - 1, _newCid, msg.sender, _reason);\r\n    }\r\n\r\n    // ============ Hàm đọc (view) ============\r\n    function getCid() public view returns (string memory) {\r\n        return cid;\r\n    }\r\n\r\n    function getCount() public view returns (uint256) {\r\n        return count;\r\n    }\r\n\r\n    function getHistoryCount() public view returns (uint256) {\r\n        return history.length;\r\n    }\r\n\r\n    function getHistoryItem(uint256 index) \r\n        public \r\n        view \r\n        returns (string memory cid, uint256 timestamp, address modifiedBy, string memory reason) \r\n    {\r\n        require(index < history.length, \"Index out of bounds\");\r\n        HistoryItem memory item = history[index];\r\n        return (item.cid, item.timestamp, item.modifiedBy, item.reason);\r\n    }\r\n\r\n    // Lấy toàn bộ lịch sử (cẩn thận nếu số lượng lớn, nhưng với giới hạn maxRecords là an toàn)\r\n    function getAllHistory() public view returns (HistoryItem[] memory) {\r\n        return history;\r\n    }\r\n}",
  "sourcePath": "C:\\Users\\Admin\\Downloads\\Blockchain\\fraud-detect-dapp-mvp\\contracts\\CidStorage.sol",
  "compiler": {
    "name": "solc",
    "version": "0.8.35+commit.47b9dedd.Emscripten.clang"
  },
  "schemaVersion": "3.4.16",
  "updatedAt": "2026-06-07T18:40:14.573Z",
  "networkType": "ethereum",
  "devdoc": {
    "kind": "dev",
    "methods": {},
    "version": 1
  },
  "userdoc": {
    "kind": "user",
    "methods": {},
    "version": 1
  }
}